{
  "contractName": "KeepersCounter",
  "abi": [
    {
      "inputs": [
        {
          "internalType": "uint256",
          "name": "updateInterval",
          "type": "uint256"
        }
      ],
      "stateMutability": "nonpayable",
      "type": "constructor"
    },
    {
      "inputs": [],
      "name": "counter",
      "outputs": [
        {
          "internalType": "uint256",
          "name": "",
          "type": "uint256"
        }
      ],
      "stateMutability": "view",
      "type": "function"
    },
    {
      "inputs": [],
      "name": "interval",
      "outputs": [
        {
          "internalType": "uint256",
          "name": "",
          "type": "uint256"
        }
      ],
      "stateMutability": "view",
      "type": "function"
    },
    {
      "inputs": [],
      "name": "lastTimeStamp",
      "outputs": [
        {
          "internalType": "uint256",
          "name": "",
          "type": "uint256"
        }
      ],
      "stateMutability": "view",
      "type": "function"
    },
    {
      "inputs": [
        {
          "internalType": "bytes",
          "name": "",
          "type": "bytes"
        }
      ],
      "name": "checkUpkeep",
      "outputs": [
        {
          "internalType": "bool",
          "name": "upkeepNeeded",
          "type": "bool"
        },
        {
          "internalType": "bytes",
          "name": "",
          "type": "bytes"
        }
      ],
      "stateMutability": "nonpayable",
      "type": "function"
    },
    {
      "inputs": [
        {
          "internalType": "bytes",
          "name": "",
          "type": "bytes"
        }
      ],
      "name": "performUpkeep",
      "outputs": [],
      "stateMutability": "nonpayable",
      "type": "function"
    }
  ],
  "bytecode": "0x60a060405234801561001057600080fd5b5060405161052b38038061052b83398181016040528101906100329190610063565b80608081815250504260018190555060008081905550506100b6565b60008151905061005d8161009f565b92915050565b6000602082840312156100795761007861009a565b5b60006100878482850161004e565b91505092915050565b6000819050919050565b600080fd5b6100a881610090565b81146100b357600080fd5b50565b6080516104536100d860003960008181610135015261016e01526104536000f3fe608060405234801561001057600080fd5b50600436106100575760003560e01c80633f3b3b271461005c5780634585e33b1461007a57806361bc221a146100965780636e04ff0d146100b4578063947a36fb146100e5575b600080fd5b610064610103565b60405161007191906102ba565b60405180910390f35b610094600480360381019061008f91906101e6565b610109565b005b61009e610129565b6040516100ab91906102ba565b60405180910390f35b6100ce60048036038101906100c991906101e6565b61012f565b6040516100dc92919061028a565b60405180910390f35b6100ed61016c565b6040516100fa91906102ba565b60405180910390f35b60015481565b42600181905550600160005461011f91906102f1565b6000819055505050565b60005481565b600060607f0000000000000000000000000000000000000000000000000000000000000000600154426101629190610347565b1191509250929050565b7f000000000000000000000000000000000000000000000000000000000000000081565b60008083601f8401126101a6576101a56103f8565b5b8235905067ffffffffffffffff8111156101c3576101c26103f3565b5b6020830191508360018202830111156101df576101de6103fd565b5b9250929050565b600080602083850312156101fd576101fc610407565b5b600083013567ffffffffffffffff81111561021b5761021a610402565b5b61022785828601610190565b92509250509250929050565b61023c8161037b565b82525050565b600061024d826102d5565b61025781856102e0565b9350610267818560208601610391565b6102708161040c565b840191505092915050565b61028481610387565b82525050565b600060408201905061029f6000830185610233565b81810360208301526102b18184610242565b90509392505050565b60006020820190506102cf600083018461027b565b92915050565b600081519050919050565b600082825260208201905092915050565b60006102fc82610387565b915061030783610387565b9250827fffffffffffffffffffffffffffffffffffffffffffffffffffffffffffffffff0382111561033c5761033b6103c4565b5b828201905092915050565b600061035282610387565b915061035d83610387565b9250828210156103705761036f6103c4565b5b828203905092915050565b60008115159050919050565b6000819050919050565b60005b838110156103af578082015181840152602081019050610394565b838111156103be576000848401525b50505050565b7f4e487b7100000000000000000000000000000000000000000000000000000000600052601160045260246000fd5b600080fd5b600080fd5b600080fd5b600080fd5b600080fd5b6000601f19601f830116905091905056fea26469706673582212204a7174465f64101940c3892ca48ffd7d57624e474265b70662a654f5a31453a464736f6c63430008070033",
  "immutableReferences": {
    "75": [
      {
        "length": 32,
        "start": 309
      },
      {
        "length": 32,
        "start": 366
      }
    ]
  },
  "source": "// SPDX-License-Identifier: MIT\r\npragma solidity ^0.8.7;\r\n\r\nimport \"@chainlink/contracts/src/v0.8/interfaces/KeeperCompatibleInterface.sol\";\r\n\r\ncontract KeepersCounter is KeeperCompatibleInterface {\r\n    /**\r\n    * Public counter variable\r\n    */\r\n    uint public counter;\r\n\r\n    /**\r\n    * Use an interval in seconds and a timestamp to slow execution of Upkeep\r\n    */\r\n    uint public immutable interval;\r\n    uint public lastTimeStamp;\r\n    \r\n    constructor(uint updateInterval) {\r\n      interval = updateInterval;\r\n      lastTimeStamp = block.timestamp;\r\n\r\n      counter = 0;\r\n    }\r\n\r\n    function checkUpkeep(bytes calldata /* checkData */) external override returns (bool upkeepNeeded, bytes memory /* performData */) {\r\n        upkeepNeeded = (block.timestamp - lastTimeStamp) > interval;\r\n        // We don't use the checkData in this example. The checkData is defined when the Upkeep was registered.\r\n    }\r\n\r\n    function performUpkeep(bytes calldata /* performData */) external override {\r\n        lastTimeStamp = block.timestamp;\r\n        counter = counter + 1;\r\n        // We don't use the performData in this example. The performData is generated by the Keeper's call to your checkUpkeep function\r\n    }   \r\n}",
  "sourcePath": "C:\\wamp64\\www\\CODE\\PROTOTYPES\\2021\\chainlink-data-feeds\\contracts\\KeepersCounter.sol",
  "compiler": {
    "name": "solc",
    "version": "0.8.7+commit.e28d00a7.Emscripten.clang"
  },
  "schemaVersion": "3.4.3",
  "updatedAt": "2021-11-13T03:24:58.349Z",
  "devdoc": {
    "kind": "dev",
    "methods": {},
    "version": 1
  },
  "userdoc": {
    "kind": "user",
    "methods": {
      "counter()": {
        "notice": "Public counter variable"
      },
      "interval()": {
        "notice": "Use an interval in seconds and a timestamp to slow execution of Upkeep"
      }
    },
    "version": 1
  }
}