{
  "contractName": "PriceConsumer",
  "abi": [
    {
      "inputs": [],
      "stateMutability": "nonpayable",
      "type": "constructor"
    },
    {
      "inputs": [],
      "name": "getLatestPrice",
      "outputs": [
        {
          "internalType": "int256",
          "name": "",
          "type": "int256"
        }
      ],
      "stateMutability": "view",
      "type": "function"
    }
  ],
  "bytecode": "0x608060405234801561001057600080fd5b50739326bfa02add2366b30bacb125260af6410313316000806101000a81548173ffffffffffffffffffffffffffffffffffffffff021916908373ffffffffffffffffffffffffffffffffffffffff160217905550610298806100746000396000f3fe608060405234801561001057600080fd5b506004361061002b5760003560e01c80638e15f47314610030575b600080fd5b61003861004e565b60405161004591906101d3565b60405180910390f35b60008060008060008060008054906101000a900473ffffffffffffffffffffffffffffffffffffffff1673ffffffffffffffffffffffffffffffffffffffff1663feaf968c6040518163ffffffff1660e01b815260040160a06040518083038186803b1580156100bd57600080fd5b505afa1580156100d1573d6000803e3d6000fd5b505050506040513d601f19601f820116820180604052508101906100f59190610149565b94509450945094509450839550505050505090565b6000815190506101198161021d565b92915050565b60008151905061012e81610234565b92915050565b6000815190506101438161024b565b92915050565b600080600080600060a0868803121561016557610164610218565b5b600061017388828901610134565b95505060206101848882890161010a565b94505060406101958882890161011f565b93505060606101a68882890161011f565b92505060806101b788828901610134565b9150509295509295909350565b6101cd816101ee565b82525050565b60006020820190506101e860008301846101c4565b92915050565b6000819050919050565b6000819050919050565b600069ffffffffffffffffffff82169050919050565b600080fd5b610226816101ee565b811461023157600080fd5b50565b61023d816101f8565b811461024857600080fd5b50565b61025481610202565b811461025f57600080fd5b5056fea26469706673582212203b41389dc0c9d64f6274d2fc5426d74e9d9d7f921c55f4f0a3b417ce5c1e168764736f6c63430008070033",
  "immutableReferences": {},
  "source": "// SPDX-License-Identifier: MIT\r\npragma solidity ^0.8.7;\r\n\r\nimport \"@chainlink/contracts/src/v0.8/interfaces/AggregatorV3Interface.sol\";\r\n\r\ncontract PriceConsumer {\r\n\r\n    AggregatorV3Interface internal priceFeed;\r\n\r\n    /**\r\n     * Network: Kovan\r\n     * Aggregator: ETH/USD\r\n     * Address: 0x9326BFA02ADD2366b30bacB125260Af641031331\r\n     */\r\n    constructor() {\r\n        priceFeed = AggregatorV3Interface(0x9326BFA02ADD2366b30bacB125260Af641031331);\r\n    }\r\n\r\n    /**\r\n     * Returns the latest price\r\n     */\r\n    function getLatestPrice() public view returns (int) {\r\n        (\r\n            uint80 roundID, \r\n            int price,\r\n            uint startedAt,\r\n            uint timeStamp,\r\n            uint80 answeredInRound\r\n        ) = priceFeed.latestRoundData();\r\n        return price;\r\n    }\r\n}",
  "sourcePath": "C:\\wamp64\\www\\CODE\\PROTOTYPES\\2021\\chainlink-data-feeds\\contracts\\PriceConsumer.sol",
  "compiler": {
    "name": "solc",
    "version": "0.8.7+commit.e28d00a7.Emscripten.clang"
  },
  "schemaVersion": "3.4.3",
  "updatedAt": "2021-11-13T03:24:58.362Z",
  "devdoc": {
    "kind": "dev",
    "methods": {},
    "version": 1
  },
  "userdoc": {
    "kind": "user",
    "methods": {
      "constructor": {
        "notice": "Network: Kovan Aggregator: ETH/USD Address: 0x9326BFA02ADD2366b30bacB125260Af641031331"
      },
      "getLatestPrice()": {
        "notice": "Returns the latest price"
      }
    },
    "version": 1
  }
}